:020000041008E2
:10000000000008286DB5081081BD081011BB08104C
:1000100085BD081089BD08108DBD081000000000C6
:10002000000000000000000000000000A1BB08105C
:1000300091BD08100000000095BD081099BD081082
:10004000F3B3081019B408103FB4081065B40810D1
:100050008BB40810B1B40810D7B40810FDB4081060
:100060009DBD0810A1BD0810A5BD0810A9BD0810B0
:10007000ADBD0810B1BD0810B5BD0810B9BD081060
:1000800040F0200070472DE9F14FB0B09246049146
:100090000DF142013A9A2B9199464A7000200AE0EC
:1000A0001AF8011B0498309A90470028049000F039
:1000B00034860D98401C0D909AF8000050B1252808
:1000C000EED1002100220791089209910A920B912A
:1000D0000C9204E00D9800F022BE41F001011AF8E4
:1000E000010F2028F9D023280CD02B2804D02D284C
:1000F00005D0302809D00BE041F00201EFE741F0D4
:100100000401ECE741F00801E9E741F01001E6E7FE
:100110002A280FD1D9F8002052F8040BC9F8002082
:1001200000280F9003D540420F9041F004010AF1DE
:10013000010A14E00F92DFF8EC3B0AE00F989842B6
:1001400005DA00EB800402EB4402303A0F920AF128
:10015000010A9AF80020A2F130000A28EED39AF89A
:1001600000002E2803D04FF0FF320E9229E01AF83B
:10017000010F2A2809D1D9F8000050F8042BC9F83A
:1001800000000E920AF1010A1BE02D280CBF0AF1B3
:10019000010A002000220E92DFF8884B0BE040B9E4
:1001A0000E9AA24205DA02EB820503EB4503303BCF
:1001B0000E930AF1010A9AF80030A3F130020A2ADC
:1001C000EDD3ADF840100FF660309AF8001000F053
:1001D000EDFE08B11AF8010B8DF842009DF84200BF
:1001E000682805D19AF8000068280CD1622106E041
:1001F0006C2804BF9AF800006C2804D171218DF896
:1002000042100AF1010A12A806901AF801BBBBF1CC
:1002100025012CD01C3900F09481091F022940F2DD
:100220009081133900F0AB84093900F08A81891E6E
:1002300000F04085491E00F0ED84491E022940F27D
:100240008081091F00F0E684491F00F0EF80491EFD
:1002500000F09584491E00F0D780C91E0CD0891E7D
:1002600000F08D84C91E00F08A8400F02EBD0123A9
:100270000793252100F026BDD9F8000050F8044B63
:10028000C9F80000002C059440F0AB802B99487809
:10029000002800F0A1804FF0FF340FF6942000F00A
:1002A00095FE241A40F0398500F01BBD01236A46F3
:1002B00002A9304600F000FE002840F02E85641EA2
:1002C000F4D13096079C12AF74B1309E17F8011B21
:1002D0000498B0470028049000F01F850D98401C3A
:1002E000641E0D90F2D130960A9C3021002C8DF8BE
:1002F00000100CDD309E01236A4602A9304600F052
:10030000DBFD002840F00985641EF4D13096059F7E
:10031000089C74B1309E17F8011B0498B047002860
:10032000049000F0FA840D98401C641E0D90F2D1E8
:1003300030960B9C3021002C8DF800100CDD309E87
:1003400001236A4602A9304600F0B6FD002840F0BD
:10035000E484641EF4D1309605980899099C4718E6
:1003600074B1309E17F8011B0498B0470028049020
:1003700000F0D3840D98401C641E0D90F2D130968D
:100380000C9C3021002C8DF800100CDD309E0123D8
:100390006A4602A9304600F08FFD002840F0BD8477
:1003A000641EF4D130969DF8400041077FF584AE7D
:1003B0002020002D8DF800007FF77EAE309C0123B9
:1003C0006A4602A9204600F077FD002840F0A58487
:1003D0006D1EF4D130946FE60FF63C30059000F0BE
:1003E00080BC0E9D002D04D5204600F00FFE044673
:1003F00007E02A46204600F025FE002814BF041B13
:100400002C46089400F06DBCD9F8001051F8040B8C
:10041000C9F8001020F00004002121F0FF35CDE9DB
:10042000024512AB0593782100F040BC2B99487827
:1004300020B14FF0FF340FF6B02030E79DF84200B6
:10044000622860D0682817D06A283FD06C2806D070
:10045000712847D074282CD07A281DD062E0D9F8B2
:10046000001051F8040BC9F80010002866D14FF0B5
:10047000FF340FF68C2012E7D9F8001051F8040B66
:10048000C9F8001020B94FF0FF340FF6742006E7CA
:100490000D99018000F025BCD9F8001051F8040B2B
:1004A000C9F80010002849D14FF0FF340FF6502052
:1004B000F5E6D9F8001051F8040BC9F8001000282F
:1004C0003CD14FF0FF340FF63820E8E6D9F80010A1
:1004D00051F8040BC9F8001080B94FF0FF340FF643
:1004E0002020DCE6D9F8001051F8040BC9F8001000
:1004F00020B94FF0FF340FF60820D0E60D9AD3173D
:10050000C0E90023EDE3D9F8001051F8040BC9F855
:10051000001020B94FF0FF340FF6E410BFE60D993C
:100520000170DEE3D9F8001051F8040BC9F800108F
:1005300020B94FF0FF340FF6C810B0E60D990160F6
:10054000CFE39DF842004C2807BFD9F80010CA1D20
:10055000D9F80000C21D22F00702C9F80020D2E934
:1005600000010832C9F80020CDE90201C80F02D00D
:1005700007982D210AE0BDF84000810702D50798B1
:100580002B2103E0C00705D50798202112AA11549A
:10059000401C079012A807994BF0200300EB010CB8
:1005A000DDE90201CDE92C01612BCDF814C021ACAD
:1005B0000BD00E98002848BF062105D404BF4BF08D
:1005C0002000672801D101210E91DDE902014F00D1
:1005D00047EAD0777E15FF174FF0FF32974208BFEA
:1005E000964210D1090341EA10510003002908BFC7
:1005F000002808D0ABF1610503211A2D089118D30A
:100600000FF61C1110E0DDE902014A00521512F14B
:10061000010F11D108030FD1ABF1610503211A2D90
:1006200008911FD30FF600110322604600F036FD3B
:1006300057E30FF6E801F7E7DDE902016A4600F04B
:1006400081FDCDE902014BF02000612811D1059810
:1006500030210170821C0592BBF1610F0CBF782123
:10066000582102E00FF6BC01DEE741700798801CBC
:100670000790DDE9020120F0000231F0004308BFDD
:10068000002A02D10026002542E14BF02008B8F1F3
:10069000610F40F092800E98002847BF2121019100
:1006A000401C0190019FDDE92C017F1C00220023EA
:1006B000DDE9024500F07EFD38BF85F00045009978
:1006C0008DF88420091F002F00910DF1850632DD81
:1006D000204629460022002300F086FD2BD21C2252
:1006E00000F09CFD04460D4600F01AFEFF1F002F8F
:1006F000804609DD00F01BFE02460B4620462946D7
:1007000000F01CFE04460D46F01D0721B8F1000F55
:100710000CDD491E5EBF08F00F0200F8012D4FEA04
:100720002818F3D502E0002200F8012D491EFAD561
:10073000C61D002FCCDC0DF18500361A01980DF195
:1007400085048642D8BF304600282FD4B04206DA4E
:100750000DF185010A5C082AA8BF0F2100DA0021EB
:10076000024621AB134400E0401E13F80159521E0B
:100770008D42F9D00F2904D10DF185018B5C5B1CF2
:100780008B54002A04D50099091D21AC401C00910E
:10079000411E0BD4621813783033DDB23A2DA4BF5A
:1007A0005B443A3B491E02F80139F4D50E99002901
:1007B00040F1AC80421E0E92A8E00099DFF8E826D6
:1007C00047F29750414391FBF2F20092DDE92C454C
:1007D000C2F10702002A25F0004504DD2046294623
:1007E00000F03EFB0BE052420020DFF8C01600F0A4
:1007F00037FB02460B462046294600F0A8FD04467A
:100800000D46B8F1660F06BF009F0A3706270E98FF
:100810003F18142FC8BF142730208DF884000DF125
:100820008506002F34DD2046294600F099FD01465B
:100830000A4606F1080304200A26B2FBF6F606EB88
:10084000860EA2EB4E02303203F8012C0A22B6FBD0
:10085000F2F202EB820EA6EB4E063036401E03F893
:10086000026DE9D1083F002F03F10806D9DD0846E3
:1008700000F07DFD02460B462046294600F05EFD55
:100880000022DFF82C3600F079FD04460D46CAE759
:100890000DF18500361A0DF1850404E00098401E24
:1008A000761E0090641C20783028F7D0B8F1660FCF
:1008B00002D10098401C04E0B8F1650F0CBF012084
:1008C00000200E9940188642B8BF701E00281DD423
:1008D000B04204DA215C3429C8BF392100DC302160
:1008E0000246631E9D1800E0401E15F80169521E65
:1008F0008E42F9D0392902D1A15C491CA154002AA9
:1009000004D50099491C1C46401C00910646009DD8
:100910000E9F30B2002802DC01260FF210644BF06B
:100920002000662808BF6D1C15D067280FFA85F8CF
:1009300041D118F1040F44DBB84542DA9DF840007C
:100940006D1C010703D430B2B842D8BF074628B2A5
:100950003F1A48BF00270FFA85F8B8F1000F00F3DF
:10096000AF800898411C0891302205990A54002F45
:1009700003DC9DF84000010705D50898411C08914B
:100980002E2205990A5417EB080FB8BF7D422DB2ED
:100990006842ED1932B20B909542B8BF2E46059BC6
:1009A000089836B2099632462146184400F076FB84
:1009B000AD1B0C95CCE0BBF1610F15D14FF0700B66
:1009C00017E030B2B84204DA9DF840100A0758BF69
:1009D00007467F1E48BF0027BBF1670F14BF4FF0CB
:1009E000450B4FF0650B04E0BBF1410F08BF4FF022
:1009F000500B0898411C0891002F059914F8012B01
:100A00000A5403DC9DF84000010719D50898411CE1
:100A100008912E2205990A54002F11DD761E30B25E
:100A20008742B8BF3E460598089B32B2214618441B
:100A300000F034FB089836B23018BF1B08900B97B3
:100A4000059808990844B8F1000F80F800B003D465
:100A50002B224270821C04E02D2145464170821CED
:100A60006D4200212CAB28460AE004460A2094FB84
:100A7000F0F000EB8005A4EB450403F8014B491CA2
:100A800000B20028F1DC012906DC4BF020006528CB
:100A900004BF302002F8010B00292CAB08D1302014
:100AA00002F8010B06E0491E585C303002F8010BD9
:100AB0000029F8DC059908980844121A099247E0C1
:100AC00030B229B288421BDA0598089B32B221461F
:100AD000184400F0E3FA089936B271180891A8EBAF
:100AE0000600002F0B9003DC9DF84000020705D59F
:100AF000059A2E2050540999491C09910C9727E01A
:100B00000598089B2AB22146184400F0C7FA0898B5
:100B1000761B4044002F089003DC9DF840100A0724
:100B200004D5411C08912E2205990A5430B28742FF
:100B3000B8BF3E460598089B32B204EB0801184442
:100B400000F0ACFA089836B23018BE1B08900B962D
:100B50009DF8400000F01400102840F0C280079A71
:100B600008980B99821809988A1882180C980F997E
:100B70008018884280F2B580081A0A90B1E09DF88A
:100B80004200622808D068280ED06A2814D06C2849
:100B90001FD0712810D01CE0D9F8001051F8040BB8
:100BA000C9F80010C0B21AE0D9F8001051F8040BCF
:100BB000C9F8001080B212E0D9F80000C21D22F07E
:100BC0000702C9F80020D2E900010832C9F8002064
:100BD00006E0D9F8001051F8040BC9F80010002104
:100BE000CDE902019DF8400001075AD5DDE9022355
:100BF000002B08BF002A54D04BF02000782850D199
:100C0000079812A930220A54401C431C079301F88C
:100C100000B046E09DF84200622808D068280ED057
:100C20006A2814D06C281FD0712810D01CE0D9F885
:100C3000001051F8040BC9F8001040B21AE0D9F8BE
:100C4000001051F8040BC9F8001000B212E0D9F8F6
:100C50000000C21D22F00702C9F80020D2E90001FD
:100C60000832C9F8002006E0D9F8001051F8040B4A
:100C7000C9F80010C117CDE90201002902D5079873
:100C80002D210AE0BDF84000810702D507982B21ED
:100C900003E0C00705D50798202112AA1154401C73
:100CA000079012A8079901440591594602A800F03F
:100CB0004DF816E001200790D9F8000050F8041B09
:100CC000C9F800008DF848100BE001212522BBF186
:100CD000000F07918DF8482003D0022207928DF86B
:100CE00049B00F9D07990A986D1A08992D1A0B980B
:100CF0006D1A09992D1A0C986D1A9DF840102D1A2D
:100D000048073FF5DFAA2021002D8DF800107FF75E
:100D1000D9AA309E2C46FFF7C9BA4FF0FF3031B048
:100D2000BDE8F08FCBCCCC0C686A6C747A4C0000B8
:100D30007072696E74665F733A2062616420257315
:100D400020617267756D656E740000002DE9FC47C7
:100D500007468A463C6950466F2808BF082505D0DB
:100D6000FFF78EF9782814BF0A251025D7E900016E
:100D70003C2680468946BAF1640F18BFBAF1690F64
:100D800005D1002903D5D8F1000869EB4909B9F16B
:100D9000000F08BFB8F1000F0CD1386B50B9082D07
:100DA0003AD197F83800010736D530223B2684F82F
:100DB0003B2031E08DF800A0404649462A46EB171B
:100DC00000F0E6FA3032D0B2761E3A2801960EDAFA
:100DD000A255404649462A46EB1700F0D9FA80460C
:100DE0005FEA010908BFB8F1000F05D108E09DF8DE
:100DF00000001218513AEBE7F868A1198842DBD3DA
:100E0000082D09D197F83800010705D5A05D3028D5
:100E100002D0761E3020A055C6F13C03BB61A1195B
:100E2000F960386B834208DAC31A3B624FF6EF7001
:100E3000398F01403987BDE8F38700280ED597F830
:100E4000380000F01400102808D17A6B7969386AEC
:100E5000521A121AD21A002AC8BF3A62BDE8F387A2
:100E60002DE9D04306460F4614464FF00008DFF840
:100E7000449012E0E00707D542464B4630463946DB
:100E800000F07CFA06460F464046494642464B462D
:100E900000F074FA641080468946002CEAD130468E
:100EA0003946BDE8D0830000A08601000000F03F75
:100EB00084D7974100002440F8B505460E461746F2
:100EC0001C4600205CB117F8011BB068A847B06051
:100ED00030B1F06A401CF0620020641EF3D1F2BD14
:100EE0004FF0FF30F2BD00007072696E74665F7380
:100EF0003A20256E20646973616C6C6F77656400BD
:100F00007072696E74663A2062616420256E206199
:100F10007267756D656E7400000000006E616E0092
:100F20004E414E00696E6600494E46003000F0B4F6
:100F30000246106895681318506803EB5004C00708
:100F400048BF4D44A3422DD013F8016B16F00300A7
:100F500004BF13F8010BC01C31090F2907D113F886
:100F6000011B0F3103E013F8017B05F8017B401EE4
:100F7000F9D10029E6D013F8010BC6F38106032E40
:100F800008BF13F8016B00EB0620404228440026FE
:100F9000B71E8F421EBF10F8017B05F8017B761C3F
:100FA000F6D1CFE7F0BC02F10C007047C9B202786D
:100FB0008A421AB11CBF10F8012FF9E718BF0020B0
:100FC00070470268531C03601170704780B500B908
:100FD00006A005490B681BB122220021984701E0B9
:100FE00000F0EEFA222002BDCC210228636F6E735E
:100FF000747261696E742068616E646C65723A2007
:10100000626164206D6573736167650000F10103BF
:10101000810704D010F8011B820781B1FAD1026860
:10102000A2F10131914311F0803104BF50F8042F37
:10103000F6E709BAB1FA81F100EBD100401CC01A01
:1010400070470000C9B2830706D0521E22D310F8A1
:10105000013B9942F7D11FE0083A13D302F1040291
:1010600041EA012141EA014150F8043B121F21BF2E
:101070004B40A3F1013C2CEA030C1CF0803FF3D061
:10108000C9B2001F083210F8013B521E28BF91EA76
:10109000030FF8D818BF0120401E704762B38B07BA
:1010A00008D0521E11F8013B00F8013B00F02480EB
:1010B0008B07F6D1830740F0208000BF103A07D39A
:1010C00030B4B1E83810103AA0E83810F9D230BC8A
:1010D000530724BFB1E80810A0E8081044BF51F836
:1010E000043B40F8043BD20724BF31F8022B20F820
:1010F000022B44BF0B7803707047121F17D35B009D
:1011000009D151F8043B20F8023B1B0C121F20F8B8
:10111000023BF6D20BE051F8043B00F8013B1B0AFE
:1011200020F8023B1B0C121F00F8013BF3D238BF22
:10113000121D521E24BF11F8013B00F8013BF8D8E4
:101140007047000010B5144600F002F8226010BD90
:10115000C1F30A5343B14A0012F5001F28D2A3F28B
:10116000FE32A1EB0251704750EA410C20D001F051
:10117000004C31EA0C01B1FA81F204BFB0FA80F3FD
:10118000D2180B3AB2F120032CBF00FA03F19140C0
:1011900041EA0C013EBFC2F1200C20FA0CF31943C6
:1011A0009040524240F2FD33D21A01EB0351704796
:1011B0000022704741EA030C50EA4C0C52EA0C0C36
:1011C0004FF4001C09D307D01CEB410F9CBF1CEB54
:1011D000430F8B4208BF824270471CEB430FFBD882
:1011E000994208BF9042704741EA030C50EA4C0C08
:1011F00052EA0C0C4FF4001C09D307D01CEB410F32
:101200009CBF1CEB430F994208BF904270471CEBF8
:10121000410FFBD88B4208BF8242704700B541ECBA
:10122000100B104600F004F851EC100B00BD00BF8D
:10123000020030EE101B40F2FF7C37D41CEA115341
:1012400013D063456BD09B18634504D201EB025168
:1012500020EE101B704701F0004141EA0C510020C4
:1012600041EC100BAFF30080704710EE100B50EA0A
:10127000410054D0B2F57F7F08D202EB5C01090532
:10128000002041EC110B20EE010B70474FF0FE41A6
:10129000002341EC113B20EE010BB2F57E7230EEE3
:1012A000101B4FEA410342EB5353CDE752421CEA75
:1012B000115316D0634532D09A4204D2A1EB0251A9
:1012C00020EE101B70475B1ED21AA1EB035120EEDB
:1012D000101B372A0CD3002001F0004141EC100B09
:1012E000C0E710EE100B50EA410018D0372AF2D2B6
:1012F000C2EB5C021105002041EC110BF1EE100A6B
:1013000020F01F0121F4F851E1EE101A20EE010B3C
:10131000F1EE101AE1EE100A11F0080FA2D1704799
:1013200041EC100BBDEEC00B10EE100A704700EE42
:10133000100AB8EEC00B51EC100B704741EC100BCB
:1013400043EC112B30EE410B51EC100B704741EC8C
:10135000100B43EC112B80EE010B51EC100B70477E
:1013600041EC100BBCEEC00B10EE100A704700EE03
:10137000100AB8EE400B51EC100B704741EC100B0B
:1013800043EC112B20EE010B51EC100B70470000C9
:10139000BBBBE1B1B2F5803F80F07E80022A1ED94E
:1013A0008C46B1FBF2F102FB11C31B0443EA10436C
:1013B000B3FBF2FC02FB1C3380B240EA0343B3FBF5
:1013C000F2F002FB103240EA0C4000237047022A80
:1013D00005D98446B0FBF2F002FB10C270474AB157
:1013E00005D100F0010249085FEA30007047002291
:1013F0000023704700F0E8B80B0002000021002035
:101400007047904271EB030CF6D3B3F5803F2FD2B7
:10141000F0B5B3FA83F7B1FA81F4A7F10F0E3D1BD3
:101420005340CEF1200602FA0EF2F3415340B5F1DB
:101430000F0746D80F3C2C444140C4F12006A04081
:10144000F1414140B1FBF3F603FB1611A2FB064547
:10145000001BA94102D2761E8018594180EA010280
:1014600021FA0EF362FA0EF200215A403046F0BD26
:1014700030B4B1FBF3FC03FB1C11A2FB0C45001BB9
:10148000A94103D2ACF1010C8018594130BC02468D
:101490000B46604600217047B2F1807F65D3F0B5FE
:1014A000B2FA82F7B1FA81F4C7F10F063D1B22FAB6
:1014B00006F307F1110EF24120355A40B5F10F073E
:1014C000B8D94140C4F12006A040F1414140B1FBF0
:1014D000F3FC03FB1C11A2FB0C45001BA94103D22A
:1014E000BCF1010C801859410F2F12D30F3FC903D3
:1014F00041EA5041B1FBF3F603FB1611A2FB06458E
:10150000D4EBC030A94102D2761E8018594146EA78
:10151000CC3C07B34140C7F12006B840F1414140FF
:10152000B1FBF3F603FB1611A2FB0645001BA94114
:1015300002D2761E8018594180EA010221FA0EF388
:10154000C7F1200462FA0EF20CFA07F05A402CFAA6
:1015500004F13043F0BD80EA010221FA0EF30021CC
:1015600062FA0EF260465A40F0BD8C46B1FBF2F1D1
:1015700002FB11C31B0243EA1063B3FBF2FC02FB44
:101580001C331B024CEA002043EA1063B3FBF2FC5D
:1015900002FB1C331B024CEA002043EA1063B3FB3E
:1015A000F2FC02FB1C331B024CEA002043EA1063EE
:1015B000B3FBF2FC02FB1C324CEA00200023704714
:1015C000012000F003B800007047000080B5AFF3C1
:1015D0000080024A11001820ABBEFBE72600020083
:1015E000022801D3012010E00B00DBB2042B01DB49
:1015F00001200AE0DFF8283803EB8000C9B2405C24
:10160000824201D3012000E000207047F8B50600B7
:101610000F0015001C00022E01D301201DE02A003E
:101620003900C9B23000FFF7DBFF012801D10120EA
:1016300013E03800C0B2002812D1B4F5807F0DD27B
:10164000DFF8E0077603304400EB850010F58050AA
:10165000016864F30F2101600020F2BD0120FCE766
:10166000FFB2012F11D1B4F5803F0CD2DFF8B407DF
:101670007603304400EB850010F5A050016864F358
:1016800017210160E8E70120E7E70120E5E700B264
:101690000012C0B27047F8B505000E001700280010
:1016A00000B2FFF7F4FF04002000C0B2022801D30B
:1016B000012024E03A003100C9B22000C0B2FFF797
:1016C0008FFF012801D1012019E0DFF85817200011
:1016D000C0B2400308442A00D2B200EB8200D0F826
:1016E000000CF6B266F3092067F30700E4B2640366
:1016F0002144EDB201EB8501C1F8000C0020F2BDE0
:1017000070B504000D001600022C01D301201DE06D
:1017100032002900C9B22000FFF762FF012801D181
:10172000012013E0DFF8FC166003085850F0004079
:1017300050F0407050F47F00EDB265F3092066F37D
:1017400007006203885064030859002070BD10B57B
:10175000C0B2002800F0EA80022800F0EB80C0F060
:10176000E780042800F0EA80C0F0E680062800F058
:10177000E980C0F0E580082800F0E880C0F0E4804F
:101780000A2800F0E780C0F0E3800C2800F0E68033
:10179000C0F0E2800E2800F0E580C0F0E180102863
:1017A00000F0E480C0F0E080122800F0E380C0F098
:1017B000DF80142800F0E280C0F0DE80162800F000
:1017C000E180C0F0DD80182800F0E080C0F0DC800F
:1017D0001A2800F0DF80C0F0DB801C2800F0DE80DB
:1017E000C0F0DA801E2800F0DD80C0F0D98020280B
:1017F00000F0DC80C0F0D880222800F0DB80C0F050
:10180000D780242800F0DA80C0F0D680262800F0A7
:10181000D980C0F0D580282800F0D880C0F0D480CE
:101820002A2800F0D780C0F0D3802C2800F0D68082
:10183000C0F0D2802E2800F0D580C0F0D1803028B2
:1018400000F0D480C0F0D080322800F0D380C0F007
:10185000CF80342800F0D280C0F0CE80362800F04F
:10186000D180C0F0CD80382800F0D080C0F0CC808E
:101870003A2800F0CF80C0F0CB803C2800F0CE802A
:10188000C0F0CA803E2800F0CD80C0F0C98040285A
:1018900000F0CC80C0F0C880422800F0CB80C0F0BF
:1018A000C780442800F0CA80C0F0C680462800F0F7
:1018B000C980C0F0C580482800F0C880C0F0C4804E
:1018C0004A2800F0C780C0F0C3804C2800F0C680D2
:1018D000C0F0C2804E2800F0C580C0F0C180502802
:1018E00000F0C480C0F0C080522800F0C380C0F077
:1018F000BF80542800F0C280C0F0BE80562800F09F
:10190000C180C0F0BD80582800F0C080C0F0BC800D
:101910005A2800F0BF80C0F0BB805C2800F0BE8079
:10192000C0F0BA805D2800F0BB80BBE01924BFE0A6
:101930003124BDE01824BBE03324B9E03524B7E0FE
:101940001424B5E03724B3E01324B1E02024AFE041
:101950001224ADE02124ABE01124A9E01024A7E07B
:101960002824A5E02924A3E02A24A1E009249FE05B
:101970002B249DE008249BE02C2499E0032497E08D
:10198000022495E0392493E03B2491E03D248FE04C
:1019900001248DE03F248BE0002489E0402487E08F
:1019A000412485E0422483E0432481E0BF247FE09A
:1019B00048247DE049247BE0BC2479E0992477E049
:1019C0009A2475E0502473E09B2471E0B6246FE004
:1019D00051246DE09C246BE0B52469E0522467E05B
:1019E000A02465E0B42463E0532461E0B3245FE005
:1019F00054245DE0B2245BE0B12459E0AD2457E00B
:101A0000602455E0AE2453E0612451E0AD244FE062
:101A100062244DE063244BE0AB2449E0642447E0BA
:101A2000AA2445E0652443E0A92441E0A8243FE03E
:101A300069243DE06B243BE06D2439E06F2437E0FE
:101A4000A32435E0702433E0A22431E071242FE098
:101A5000A1242DE097242BE0962429E0742427E08C
:101A6000952425E0752423E0942421E093241FE0AD
:101A700092241DE078241BE0792419E08C2417E0DF
:101A80007A2415E08B2413E07B2411E08A240FE0F4
:101A90005A240DE059240BE0892409E0582407E07A
:101AA000882405E09D22DFF84019002000F033FE75
:101AB0002000C0B210BD10B5C0B2002800F0EA800E
:101AC000022800F0EB80C0F0E780042800F0EA80F4
:101AD000C0F0E680062800F0E980C0F0E580082824
:101AE00000F0E880C0F0E4800A2800F0E780C0F051
:101AF000E3800C2800F0E680C0F0E2800E2800F0C1
:101B0000E580C0F0E180102800F0E480C0F0E080C3
:101B1000122800F0E380C0F0DF80142800F0E2809B
:101B2000C0F0DE80162800F0E180C0F0DD801828CB
:101B300000F0E080C0F0DC801A2800F0DF80C0F008
:101B4000DB801C2800F0DE80C0F0DA801E2800F068
:101B5000DD80C0F0D980202800F0DC80C0F0D88083
:101B6000222800F0DB80C0F0D780242800F0DA8043
:101B7000C0F0D680262800F0D980C0F0D580282873
:101B800000F0D880C0F0D4802A2800F0D780C0F0C0
:101B9000D3802C2800F0D680C0F0D2802E2800F010
:101BA000D580C0F0D180302800F0D480C0F0D08043
:101BB000322800F0D380C0F0CF80342800F0D280EB
:101BC000C0F0CE80362800F0D180C0F0CD8038281B
:101BD00000F0D080C0F0CC803A2800F0CF80C0F078
:101BE000CB803C2800F0CE80C0F0CA803E2800F0B8
:101BF000CD80C0F0C980402800F0CC80C0F0C88003
:101C0000422800F0CB80C0F0C780442800F0CA8092
:101C1000C0F0C680462800F0C980C0F0C5804828C2
:101C200000F0C880C0F0C4804A2800F0C780C0F02F
:101C3000C3804C2800F0C680C0F0C2804E2800F05F
:101C4000C580C0F0C180502800F0C480C0F0C080C2
:101C5000522800F0C380C0F0BF80542800F0C2803A
:101C6000C0F0BE80562800F0C180C0F0BD8058286A
:101C700000F0C080C0F0BC805A2800F0BF80C0F0E7
:101C8000BB805C2800F0BE80C0F0BA805D2800F008
:101C9000BB80BBE00824C0E00824BEE00824BCE010
:101CA0000824BAE00824B8E00824B6E00824B4E028
:101CB0000824B2E00824B0E00824AEE00824ACE038
:101CC0000824AAE00824A8E00824A6E00824A4E048
:101CD0000824A2E00824A0E008249EE008249CE058
:101CE00008249AE0082498E0082496E0082494E068
:101CF000082492E0082490E008248EE008248CE078
:101D000008248AE0082488E0082486E0082484E087
:101D1000082482E0082480E008247EE008247CE097
:101D200008247AE0082478E0082476E0082474E0A7
:101D3000082472E0082470E008246EE008246CE0B7
:101D400008246AE0082468E0082466E0082464E0C7
:101D5000082462E0082460E008245EE008245CE0D7
:101D600008245AE0162458E0082456E0082454E0D9
:101D7000082452E0082450E008244EE008244CE0F7
:101D800008244AE0082448E0082446E0082444E007
:101D9000082442E0082440E008243EE008243CE017
:101DA00008243AE0082438E0082436E0082434E027
:101DB000082432E0082430E008242EE008242CE037
:101DC00008242AE0082428E0082426E0082424E047
:101DD000082422E0082420E008241EE008241CE057
:101DE00008241AE0082418E0082416E0082414E067
:101DF000082412E0082410E008240EE008240CE077
:101E000008240AE0082408E0082406E04FF486725B
:101E1000DFF8D415002000F07EFC2000C0B210BD19
:101E2000A0BC08100000044080B5C0B2002800F03B
:101E3000EA80022800F0EB80C0F0E780042800F080
:101E4000EA80C0F0E680062800F0E980C0F0E58076
:101E5000082800F0E880C0F0E4800A2800F0E7805D
:101E6000C0F0E3800C2800F0E680C0F0E2800E288D
:101E700000F0E580C0F0E180102800F0E480C0F0C0
:101E8000E080122800F0E380C0F0DF80142800F02A
:101E9000E280C0F0DE80162800F0E180C0F0DD8036
:101EA000182800F0E080C0F0DC801A2800F0DF8005
:101EB000C0F0DB801C2800F0DE80C0F0DA801E2835
:101EC00000F0DD80C0F0D980202800F0DC80C0F078
:101ED000D880222800F0DB80C0F0D780242800F0D2
:101EE000DA80C0F0D680262800F0D980C0F0D580F6
:101EF000282800F0D880C0F0D4802A2800F0D780AD
:101F0000C0F0D3802C2800F0D680C0F0D2802E28DC
:101F100000F0D580C0F0D180302800F0D480C0F02F
:101F2000D080322800F0D380C0F0CF80342800F079
:101F3000D280C0F0CE80362800F0D180C0F0CD80B5
:101F4000382800F0D080C0F0CC803A2800F0CF8054
:101F5000C0F0CB803C2800F0CE80C0F0CA803E2884
:101F600000F0CD80C0F0C980402800F0CC80C0F0E7
:101F7000C880422800F0CB80C0F0C780442800F021
:101F8000CA80C0F0C680462800F0C980C0F0C58075
:101F9000482800F0C880C0F0C4804A2800F0C780FC
:101FA000C0F0C3804C2800F0C680C0F0C2804E282C
:101FB00000F0C580C0F0C180502800F0C480C0F09F
:101FC000C080522800F0C380C0F0BF80542800F0C9
:101FD000C280C0F0BE80562800F0C180C0F0BD8035
:101FE000582800F0C080C0F0BC805A2800F0BF80A4
:101FF000C0F0BB805C2800F0BE80C0F0BA805D28D5
:1020000000F0BB80BBE00020C0E00020BEE001206B
:10201000BCE00120BAE00220B8E00320B6E00320D3
:10202000B4E00420B2E00420B0E00520AEE00520DA
:10203000ACE00620AAE00720A8E00920A6E00A20DC
:10204000A4E00B20A2E00B20A0E00C209EE00C20DE
:102050009CE00D209AE00D2098E00E2096E00F20E5
:1020600094E0102092E0112090E011208EE01220E8
:102070008CE012208AE0132088E0142086E01520EE
:1020800084E0162082E0162080E018207EE01920EF
:102090007CE019207AE01A2078E01B2076E01C20F2
:1020A00074E01C2072E01C2070E01D206EE01D20FA
:1020B0006CE01D206AE01E2068E01E2066E01E2005
:1020C00064E01F2062E01F2060E020205EE020200E
:1020D0005CE021205AE0222058E0242056E0242011
:1020E00054E0252052E0252050E026204EE0272015
:1020F0004CE027204AE0282048E0282046E029201C
:1021000044E0292042E02A2040E02C203EE02D201F
:102110003CE02E203AE02F2038E02F2036E030201F
:1021200034E0302032E0312030E031202EE0322027
:102130002CE033202AE0342028E0342026E035202B
:1021400024E0352022E0362020E037201EE0382031
:102150001CE039201AE0392018E03A2016E03A2035
:1021600014E03B2012E03B2010E03B200EE03C203E
:102170000CE03C200AE03D2008E03D2006E040F273
:102180007B129949002000F0C6FA0020C0B202BDBF
:10219000002007E09549C2018A5822F00042C3019D
:1021A000CA50401C3F28F5DB704770B504000E0094
:1021B000002000202000C0B2FFF736FE8B4DC0B2D9
:1021C000C0012844006A80B206FB00F642F210709B
:1021D000B6FBF0F62000C0B2FFF726FEC00128448F
:1021E000B6B246612000C0B2FFF71EFE0100C9B2C0
:1021F000C9012944096C51F00101C0B2C001284451
:10220000016470BD2DE9F041AAB004000D00160074
:10221000342100221DAF380000F0FEFA00207421A6
:1022200000226F46380000F0F7FA0E201E902000C2
:10223000C0B2FFF740FC8DF87C002000C0B2FFF771
:1022400086FA07005FF008082000C0B2FFF77FFAA7
:102250001DAA97FBF8F108FB11773900644BC0B257
:10226000C010C001184400F096FB2000C0B2FFF778
:10227000DBFD00220121C0B210F5937000B2FFF720
:102280000AFA2000C0B2FFF7CFFDC0B210F593707C
:1022900000B2FFF7FCF9092300220121C0B2FFF7C9
:1022A000B5F92000C0B2FFF7BFFDC0B210F59370C2
:1022B00000B2FFF7ECF900220121C0B2FFF720FACB
:1022C0004C48B0FBF5F1090C4A482A04B0FBF2F384
:1022D00002FB1300002800D0491C022903D2002071
:1022E0008DF801002FE0032903D201208DF80100B1
:1022F00029E0052903D202208DF8010023E00929F5
:1023000003D203208DF801001DE0112903D204201F
:102310008DF8010017E0212903D205208DF8010076
:1023200011E0412903D206208DF801000BE081293C
:1023300003D207208DF8010005E040F2C9122A49B6
:10234000002000F0E8F904208DF8000001208DF84D
:10235000100000208DF8110003208DF812000320DA
:102360008DF8130000208DF80800224901229DF904
:1023700001008240B1FBF2F0B0FBF5F0401E059089
:102380000598401C06FB00F642F21070B6FBF0F018
:10239000089002208DF8400003208DF8680001208D
:1023A0001B9001208DF828002000C0B2FFF73CFDF3
:1023B0000E4D6946C0B2C001284400F02BFB20003E
:1023C000C0B2FFF731FDC0B2C001284400F022FCCA
:1023D0002000C0B2FFF728FDC0B2C001284400F0C1
:1023E0001EFC2AB0BDE8F081C4B9081000005840B6
:1023F0000000314000127A0082B0002001900020DD
:1024000000900020019009E00098401C0090009886
:10241000B0F5005FF8D30198401C01900198B0F529
:10242000805F02D200200090F1E702B0704780B5D3
:102430000100002000F0DFFD01BD2DE9F043ADF506
:10244000137D0700884616001C000020ADF802002E
:102450000020ADF80000002002900020ADF804003C
:102460000020ADF806004046FEF7D0FD0290DFF8F0
:1024700070532888002801D028698047DFF864035A
:102480000078002800F033812888002800F01181AE
:10249000BDF90600411CADF806103A00010089B2F2
:1024A0000020EB68984747464046FEF7AFFD029094
:1024B0006888A97990FBF1F0ADF804003800471C5A
:1024C00000780028FAD10020ADF800000EE07F1E51
:1024D00038782F2802D038785C2804D1BDF8000065
:1024E000401CADF800000298401E0290BDF80000AC
:1024F000022802DA02980028E9D50298002806D4BA
:102500007A1CDFF8E41253A800F094FF0EE0BDF847
:102510000000002805D13A00B44953A800F08AFF12
:1025200004E03A00B04953A800F084FF0020ADF861
:10253000020042E0BDF80010BDF80020BDF80230F6
:1025400053AF9BB2BDF90400434313FA82F0385CE9
:1025500043AA89B25054BDF80000401CADF80000F9
:10256000BDF8000080B2BDF9041088420EDA53A80D
:10257000FEF74CFDBDF80020BDF802309BB2BDF95E
:1025800004104B4313FA82F18842D3D2002043A9AE
:10259000BDF800208854BDF90600411CADF80610B6
:1025A00043AAE97911FB00F189B20020EB68984752
:1025B000BDF80200401CADF80200BDF8027053A83F
:1025C000FEF724FDBDF90410B0FBF1F0401CBFB2D2
:1025D000874203D20020ADF80000C1E732008449F1
:1025E00053A800F027FFBDF90600411CADF8061006
:1025F00053AAE97911FB00F189B20020EB689847F2
:10260000002C74D00020ADF8020041E0BDF80010AD
:10261000BDF80020BDF802309BB2BDF90400434371
:1026200013FA82F0205C43AA89B25054BDF800002E
:10263000401CADF80000BDF8000080B2BDF90410E8
:1026400088420EDA2000FEF7E1FCBDF80020BDF85C
:1026500002309BB2BDF904104B4313FA82F1884259
:10266000D4D2002043A9BDF800208854BDF906004B
:10267000411CADF8061043AAE97911FB00F189B2BB
:102680000020EB689847BDF80200401CADF802003E
:10269000BDF802602000FEF7B9FCBDF90410B0FBE4
:1026A000F1F0401CB6B2864221D20020ADF8000005
:1026B000C1E74FF4807100220DF10C09484600F08B
:1026C000ABF83800A9688847002C07D00094330085
:1026D0004246484903A800F0ADFE05E033004246FB
:1026E000454903A800F0A6FE03A8A96888470DF590
:1026F000137DBDE8F08310B53A480078002809D072
:102700003F4C2100002000F084FC012221003B48C6
:1027100000F015FF10BD38B50C001500C0B2002840
:1027200003D138480078002800D131BD36490878F7
:10273000002800D0FEE70878401C087001F008F976
:1027400000232A0021003148FFF777FEFFF754FEEF
:10275000F6E7002101804FF6FF7141808180FF2163
:102760008171C171002181600021C160002101617E
:1027700070471B4902880A8042884A8082888A8082
:1027800082798A71C279CA7182688A60C268CA60B5
:1027900000690861012013490870704700B585B0D1
:1027A0006846FFF7D6FF1A4802906846FFF7E1FF38
:1027B00005B000BD80B5FFF7F1FF002300225FF4F4
:1027C000E131002000F04BFD4023124A00210B486C
:1027D00001F055F80121002000F0C2FC01BD00000D
:1027E00070200228FD21022860BC081034BC0810AB
:1027F0006CBC081084BB081008BC081028200228F4
:10280000FE2102285B090228FF21022844BC08108F
:102810002F240810381F022862F30F2262F31F4290
:10282000401810F0030308D0C91A1FD3DB0748BFB4
:1028300000F8012D28BF20F8022D130030B41446F3
:102840001546103928BF20E93C00FAD8490728BFAF
:1028500020E90C0048BF40F8042D890028BF20F86B
:10286000022D48BF00F8012D30BC7047C91818BFB1
:1028700000F8012DCB0728BF00F8012D704700009C
:1028800030B4614B1818C009604C14EB00140429D3
:102890000DD223681F25C8008540AB43D2B212F089
:1028A0001F02C90012FA01F1194321600CE0091F4F
:1028B00063681F25C8008540AB43D2B212F01F02E7
:1028C000C9008A401A43626030BC7047002A04D1B4
:1028D000012212FA01F1416003E0012212FA01F132
:1028E0008160704710B48900436C0F248C40A3436F
:1028F00012F00F0212FA01F11943416410BC704743
:1029000010B4836C01248C40A34312F0010212FA2C
:1029100001F11943816410BC704710B4C36C0124E9
:102920008C40A34312F0010212FA01F11943C16471
:1029300010BC704710B449001031C36C03248C40A4
:10294000A34312F0030212FA01F11943C16410BC4F
:1029500070474269012212FA01F1416140697047F2
:1029600010B4836901248C40A34312F0010212FACF
:1029700001F11943816110BC704710B44900036C28
:1029800003248C40A34312F0030212FA01F119430D
:10299000016410BC7047F8B505000E001400002754
:1029A000002D2ED0002C2CD0226831002800FFF7FB
:1029B0008DFF227A31002800FFF762FF6269310043
:1029C0002800FFF79DFFA26931002800FFF7A5FF4F
:1029D000E26931002800FFF7ADFF6268310028008E
:1029E000FFF780FFE26831002800FFF7C6FF3100E3
:1029F0002800FFF7AEFF226931002800FFF7B0FF83
:102A000000E0034F3800F2BD0000CFBF00003040AF
:102A100001005A000122002800F0EC80002900F09B
:102A2000E980754A12680B7A63F392420B7B13F0CC
:102A3000030363F311420B7813F0070363F31A6285
:102A40008B7863F39E7291F8283063F3000291F85B
:102A5000343063F341020B7F63F382024B7F63F3F5
:102A6000C30291F8403063F38A2291F84030DBB220
:102A70005B08DBB263F3492291F8703063F30822FC
:102A800091F8713013F0030363F30D3202600A7A98
:102A9000002A02D10022826007E00A7A012A02D1CC
:102AA0004A69826001E0012282600A6A02614A6A20
:102AB0004261CA6A82610A6BC2614A6902628A69BA
:102AC00042624E4A126891F8443003F0FF03120A42
:102AD00012021A4391F84C3003F0FF0363F31742DC
:102AE00091F85C3003F0FF0363F31F6291F86C30E0
:102AF00003F0FF0363F30F224264414A126891F826
:102B0000643003F0FF0363F30F2291F8543003F0B5
:102B1000FF03120A12021A4382643A4A126891F8B9
:102B2000413013F00303920892001A4391F8603089
:102B300013F0030363F38B2291F8483013F003037F
:102B400063F3051291F8503013F0030363F3092285
:102B500091F8583013F0030363F3871291F868304B
:102B600013F0030363F38302C264274A126891F8E7
:102B7000723013F00703D208D2001A4391F8733071
:102B800013F0070363F30612426591F8352082675C
:102B90001E4A12680B7C13F00303920892001A433A
:102BA000CB7C13F0030363F387124B7C13F0030316
:102BB00063F383028B7C13F0030363F30512026556
:102BC000134A1268CB8863F31F428B889BB21B0A9F
:102BD0009BB263F30F220B78052B06D1097901F024
:102BE000FF01120A12020A4302E0497861F3070268
:102BF000026300221000704760BD081064BD081019
:102C000068BD08106CBD081070BD081074BD0810B8
:102C100078BD0810016851F00041016070474030F4
:102C2000016851F01001016070470000022801D3D3
:102C3000012010E00B00DBB2042B01DB01200AE0D5
:102C4000DFF8AC3703EB8000C9B2405C824201D3AD
:102C5000012000E000207047F8B504000F001500C7
:102C60001E00022C01D301202AE02A003900C9B23B
:102C70002000FFF7DBFF012801D1012020E00698AA
:102C80003900C9B202291ED1B6F5803F19D22028D9
:102C900017D24FF4C052DFF85C1763030B4403EB09
:102CA000850313441F6866F317271F6064032144DC
:102CB00001EB850111440A6860F3C7020A60002035
:102CC000F2BD0120FCE7FFB2032F1FD1B6F1807FD8
:102CD0001AD2202818D24FF4E052DFF818176303F5
:102CE0000B4403EB850313441F6807F0FF0757EA03
:102CF00006271F606403214401EB850111440A6823
:102D000060F3C7020A60DAE70120D9E70120D7E7BC
:102D100000B20012C0B27047F8B505000E001700EF
:102D2000280000B2FFF7F4FF04002000C0B2022820
:102D300001D3012024E03A003100C9B22000C0B222
:102D4000FFF774FF012801D1012019E0DFF8A41674
:102D50002000C0B2400308442A00D2B200EB820037
:102D6000D0F8000CF6B266F3092067F30700E4B26E
:102D700064032144EDB201EB8501C1F8000C002091
:102D8000F2BD70B504000D001600022C01D3012025
:102D90001DE032002900C9B22000FFF747FF0128DB
:102DA00001D1012013E0DFF84C166003085850F001
:102DB000004050F0407050F47F00EDB265F3092000
:102DC00066F307006203885064030859002070BD51
:102DD000D0F840037047D0F80803C005C00D704715
:102DE000C0F840127047D0F80802C005C00D704707
:102DF000D0F80802C0F3C030704738B5050028008D
:102E0000FFF7F1FF04002800FFF7F2FF0419002C80
:102E100001D1012000E00020C0B232BDC0F8C81FBF
:102E20007047D0F8C80F7047C0F8881F7047D0F8B7
:102E3000880F7047016851F000410160704738B554
:102E400004001500C9B2002906D002291ED010D3F3
:102E5000042935D027D340E0DFF89C05A06001208D
:102E60002073112060734FF48C70E0811220208257
:102E700039E0DFF88805A06001202073112060731D
:102E800040F21D10E0816B2020822CE0DFF87005FD
:102E9000A06001202073112060734FF48E70E081D8
:102EA0006A2020821FE0DFF85C05A060022020730A
:102EB0001120607340F21B10E0816920208212E033
:102EC000DFF84405A06001202073132060734FF4E5
:102ED0008D70E0816820208205E07C22DFF82C15CF
:102EE0000020FFF718FCEDB2002D06D0022D1ED0F9
:102EF00010D3042D35D027D340E0DFF8FC04206048
:102F000000202071112060714FF48C70E08112203C
:102F1000208239E0DFF8E4042060002020711120D5
:102F2000607140F21D10E0816B2020822CE0DFF800
:102F3000D004206000202071112060714FF48E7049
:102F4000E0816A2020821FE0DFF8B80420600120C1
:102F500020711120607140F21B10E08169202082F5
:102F600012E0DFF8A40420600020207113206071BB
:102F70004FF48D70E0816820208205E0A822DFF800
:102F80008C140020FFF7C7FB31BD10B5C0B200287C
:102F900006D002280AD006D304280DD009D30EE0AB
:102FA000DFF86C4411E0DFF86C440EE0DFF86844B1
:102FB0000BE0DFF8684408E0DFF8644405E0BD2278
:102FC000DFF848140020FFF7A6FB200010BD38B53D
:102FD0000400DFF85054C9B22000C0B255F82000F8
:102FE000FFF7FEFE2000C0B255F82000FFF705FFF6
:102FF0000028F7D031BD38B504000D0005E0297870
:103000002000C0B2FFF7E3FF6D1C28780028F6D13E
:1030100031BD70B504000D000020DFF80864200009
:10302000C0B256F82000FFF7D6FE002807D0E4B261
:1030300056F82400FFF7CCFE2870012000E00020A5
:10304000C0B270BD70B505000C00DFF8D863280071
:10305000C0B256F82000FFF7EAFE40084000010029
:103060002800C0B256F82000FFF7DEFE2800C0B2EC
:1030700056F82000FFF7DBFE30F0020001002800C8
:10308000C0B256F82000FFF7CFFE2800C0B256F8B5
:103090002000FFF7CCFE30F0200001002800C0B275
:1030A00056F82000FFF7C0FE2800C0B256F82000F6
:1030B000FFF7BDFE30F0400001002800C0B256F816
:1030C0002000FFF7B1FE2800C0B256F82000FFF73D
:1030D000AEFE30F0100001002800C0B256F820000B
:1030E000FFF7A2FE2800C0B256F82000FFF79FFEAF
:1030F00030F4807001002800C0B256F82000FFF7BD
:1031000093FE2800C0B256F82000FFF790FE30F47E
:10311000806001002800C0B256F82000FFF784FE4E
:10312000002C0ED02800C0B256F82000FFF779FE20
:1031300050F400700100EDB256F82500FFF774FE60
:103140000DE02800C0B256F82000FFF76AFE30F408
:1031500000700100EDB256F82500FFF765FE70BD66
:1031600070B505000C00DFF8BC622800C0B256F84C
:103170002000FFF756FE4008400001002800C0B2C2
:1031800056F82000FFF74AFE2800C0B256F820008B
:10319000FFF747FE30F0080001002800C0B256F8E3
:1031A0002000FFF73BFE2800C0B256F82000FFF7D2
:1031B00038FE30F0200001002800C0B256F8200090
:1031C000FFF72CFE2800C0B256F82000FFF729FEBA
:1031D00030F4807001002800C0B256F82000FFF7DC
:1031E0001DFE2800C0B256F82000FFF71AFE30F48A
:1031F000007001002800C0B256F82000FFF70EFE54
:103200002800C0B256F82000FFF70BFE30F4006033
:1032100001002800C0B256F82000FFF7FFFD002C87
:103220000ED02800C0B256F82000FFF7FAFD50F08B
:1032300004000100EDB256F82500FFF7EFFD0DE0A8
:103240002800C0B256F82000FFF7EBFD30F0040074
:103250000100EDB256F82500FFF7E0FD70BD2DE945
:10326000F841A7B005000F00160028003100C0B2D9
:10327000C9B2884201D1012000E000201C00DFF823
:103280008C814FF4CE724146C0B2FFF744FA280059
:103290002100C0B2C9B2884201D1012000E0002063
:1032A00040F29D124146C0B2FFF735FA02A8142140
:1032B00000F076FB342100220DF168084046FFF74C
:1032C000ABFA4C2100220DF11C084046FFF7A4FA8E
:1032D000FF003A00002354480021FEF759F8070088
:1032E0002200D2B23100C9B202A8FFF7A8FD08201F
:1032F0001B909DF80D008DF870001AAA9DF80C1017
:103300000298FFF748FB06201B909DF80D008DF8F2
:1033100070001AAA9DF814100498FFF73CFB0020D7
:103320000790082008900820099002200B900020A8
:103330000C9000201290002014903A4C2800C0B24B
:1033400054F8200000F072FC38492A00D2B238202C
:1033500042430A4407A92800C0B254F8200000F0F4
:1033600023FB2800C0B254F82000FFF763FD2A00B9
:10337000D2B20321BDF91600FFF7CEFCBDF916004D
:10338000FFF7C6FC17F01F010091C7F357132A007F
:10339000D2B20321C0B2FFF75FFCBDF91600FFF700
:1033A000B7FC2A00D2B20321C0B2FFF7EAFCBDF994
:1033B0001800ADF800000320ADF8020001208DF8E0
:1033C000040007221A482900C9B250F821106846A3
:1033D00000F0CAFA00212800C0B2FFF7C1FE0021A8
:1033E0002800C0B2FFF72EFE28B0BDE8F081000033
:1033F000A0BC081000000440000031400002314031
:1034000000053140800831400007314034BA0810CF
:103410000000604000006540000064400000634020
:10342000000062404409022800809698B01A0228E1
:10343000300902280CB430B583B00A4606A90291BF
:10344000044600250194009502AB01A90848784480
:103450001E30FCF718FE019A157000284EBF044676
:103460000198041B204603B030BC5DF80CFB00BF84
:1034700053DBFFFF82688918816003E0826841693D
:10348000521A8260816842699142F7D27047C268DD
:103490008918C16003E0C2684169521AC260C168FC
:1034A00042699142F7D2704770B50400002C01D0F8
:1034B000012000E000205422DFF8FC13C0B2FFF727
:1034C0002AF90025207850F0010020700020A0602B
:1034D0000020E060606920616078002803D0022845
:1034E00010D007D315E06169002266683000FFF74D
:1034F00093F90EE061694900002266683000FFF729
:103500008BF906E061698900002266683000FFF7E8
:1035100083F9002020702800C0B270BD10B50400EF
:10352000002C01D0012000E000207022DFF8881379
:10353000C0B2FFF7F0F860692169401A10BD2DE9AB
:10354000F84305001600002D01D0012000E0002006
:103550000C00AA22DFF86013C0B2FFF7DCF80027E6
:103560000020002C01D10327B5E0287810F0050FCA
:1035700001D00427AFE0287850F0040028702869B3
:10358000B042C0F0A380D5F81480A868B8EB00085A
:10359000B04567D26878002803D0022841D01FD3F5
:1035A00090E0424621006868AB6800EB030948469A
:1035B000FDF774FD41462800FFF75CFFB6EB0802FB
:1035C00004EB08016868AB6800EB03042000FDF71A
:1035D00065FDB6EB080841462800FFF74BFF71E098
:1035E0005FEA480221006868AB6800EB430948467F
:1035F000FDF754FD41462800FFF73CFFB6EB0802FB
:10360000520004EB48016868AB6800EB43042000FB
:10361000FDF744FDB6EB080841462800FFF72AFFF6
:1036200050E05FEA880221006868AB6800EB83091C
:103630004846FDF733FD41462800FFF71BFFB6EB78
:103640000802920004EB88016868AB6800EB830411
:103650002000FDF723FDB6EB080841462800FFF7E0
:1036600009FF2FE06878002803D002281DD00ED370
:1036700028E0320021006868AB6800EB03042000FA
:10368000FDF70CFD31002800FFF7F4FE1AE0720090
:1036900021006868AB6800EB43042000FDF7FEFCE6
:1036A00031002800FFF7E6FE0CE0B2002100686858
:1036B000AB6800EB83042000FDF7F0FC310028002C
:1036C000FFF7D8FE2869861B2E6100E005272878C1
:1036D00010F0FB0028703800C0B2BDE8F2832DE97D
:1036E000F04705000E001F00002D01D0012000E072
:1036F00000201400DFF8C08140F25B124146C0B2E6
:10370000FFF709F8002C01D0012000E000204FF461
:10371000AE724146C0B2FEF7FEFF5FF00008002027
:103720000020002E02D15FF003088BE0297811F011
:10373000030F03D020605FF006089CE02800FFF72D
:10374000EDFE2168884209D220605FF0070800285A
:1037500004D1287810F0F70028708CE0287850F019
:1037600008002870D5F81490E868B9EB00092068C3
:10377000814522D36878002803D0022813D008D3CB
:103780005CE022686868E96801443000FDF786FC67
:1037900054E0226852006868E96800EB410130009B
:1037A000FDF77CFC4AE0226892006868E96800EB5B
:1037B00081013000FDF772FC40E06878002803D0FA
:1037C000022827D011D339E04A466868E9680144E5
:1037D000B2465046FDF762FC2268B2EB0902696806
:1037E0004E443000FDF75AFC28E05FEA4902686861
:1037F000E96800EB4101B2465046FDF74FFC2268F4
:10380000B2EB09025200696806EB49063000FDF789
:1038100045FC13E05FEA89026868E96800EB810112
:10382000B2465046FDF73AFC2268B2EB090292001C
:10383000696806EB89063000FDF730FC287810F047
:10384000F7002870FFB2002F15D128780B2802D17D
:103850005FF002080FE0287850F00200287021681D
:103860002800FFF714FE296920684118296128788B
:1038700010F0FD0028704046C0B2BDE8F087F8B5F2
:1038800004000E0017001D00002C01D0012000E0F4
:1038900000204FF407720849C0B2FEF73CFF002039
:1038A00067600021217066700021A1600021E16045
:1038B00025616561C0B2F2BD1CB90810010009B2F2
:1038C000002908D4012210F01F018A401B4900B2D0
:1038D000400941F820207047010009B2002908D4AE
:1038E000012210F01F018A40154900B2400941F839
:1038F00020207047020012B2002A04D44901114A64
:1039000000B2115407E049010F4A00B210F00F0055
:10391000104400F8041C7047002800D162B60B4820
:103920000168491C0160704772B6084908680028A0
:1039300002D00868401E08600868704700E100E097
:1039400080E200E000E400E018ED00E0BC21022885
:1039500080B5FFF7E9FFFEF71BFC01BD80B5C9B2DA
:1039600000B2FFF7C7FF01BD70B504000D001600DF
:10397000200000F0A3F92900B4F9000000F0DDF9FF
:103980003100C9B2B4F90200FFF7E8FFB4F9020050
:10399000FFF7A2FFB4F90200FFF790FF70BD00002F
:1039A000002200F0E1B900002DE9F44FDFF8D82241
:1039B000DFF8D8321B68DFF8D8422468DFF8D45229
:1039C0002D68DFF8D4623668DFF8D0723F68DFF820
:1039D000D0C2DCF800C0DFF8CCE2DEF800E0DFF8AF
:1039E000C882D8F80080DFF8C492D9F80090DFF8D8
:1039F000C0A2DAF800A0002800F01581002900F02C
:103A000012810A68022A06D191F82620002A02D1E2
:103A10005FF0000B03E0D1F804B0BBF1010B91F8AB
:103A20002420002A01D0012200E0002262F310438A
:103A300033F440436BF30303022262F31963036020
:103A40000A7812F0030262F31964046491F82520E5
:103A5000002A01D0012200E0002262F38615CA7E0E
:103A6000002A01D0012200E0002262F38A254A7E6A
:103A7000002A01D0012200E0002262F308258A7E9C
:103A8000002A01D0012200E0002262F349258A6B5E
:103A9000521E12F00F0262F313450A69521E12F011
:103AA0000702ED08ED0015434A6962F304154A69FF
:103AB000520862F3451585640A7B002A01D0012271
:103AC00000E0002262F308260A7E002A01D00122CB
:103AD00000E0002262F349268A68521E12F01F029B
:103AE000760976011643C0F800630A7F02F0FF02F0
:103AF0003F0A3F02174391F8202002F0FF0262F3D1
:103B00001747C0F8107391F82720002A01D001222E
:103B100000E0002262F3082C0A69521E12F007022C
:103B20005FEADC0C5FEACC0C52EA0C0C4A6962F3E7
:103B3000041C4A69520862F3451CC0F844C00A7B61
:103B4000002A01D0012200E0002262F3082E8A68D8
:103B5000521E12F01F025FEA5E1E5FEA4E1E52EA1C
:103B60000E0E0A68012A01D1012200E0002262F350
:103B7000104EC0F800E291F83C2002F0FF025FEA2C
:103B800018285FEA082852EA0808C0F8048391F868
:103B90002820002A01D0012200E0002262F35969A6
:103BA000CA6A012A01D1012200E0002262F31869E9
:103BB0004A6B012A01D1012300E00023009A63F33C
:103BC000104991F8303003F0FF035FEA19295FEAEA
:103BD000092953EA0909C0F8509091F8443003F0DC
:103BE000FF035FEA1A2A5FEA0A2A53EA0A0AC0F8C0
:103BF00004A28B6CC0F8883F096CC0F8C81F002A6B
:103C000010D0002050600020106000209060002044
:103C1000D060002010620020D06200201063DFF826
:103C20009400506300221000BDE8F28FDFF8881086
:103C300001605FF4401101640021816440F20711CA
:103C4000C0F800130022C0F804230022C0F810239B
:103C500000224264C0F800120021C0F804120021C2
:103C600001650021C0F8C81E0021C0F8881E00218F
:103C7000C0F8C81F0021C0F8881F0021C0F8081F25
:103C80000021C0F8481F70470160AA0014BD081049
:103C900018BD08101CBD081020BD081024BD081058
:103CA00028BD08102CBD081030BD081034BD081008
:103CB00038BD0810EFCDAB000F00000330B4002179
:103CC000234A1368234A1468002832D0224A156810
:103CD000C5F303250E2D0FD01268C2F303220D2A5F
:103CE00028D1827812F00F022409240114430279AA
:103CF000002A15D0012214E0827812F00F021B096D
:103D00001B0113430279002A01D0012200E00022A6
:103D100062F3DF73114AB0F9000042F8203009E085
:103D2000002262F3DF740E4AB0F9000042F820402E
:103D300000E00649080030BC70470A4B1A68002AA8
:103D400003D01A6800B242F82010704701005600F4
:103D500044BD081048BD08100000204000A02040CD
:103D600000C02040A008022800B500BF13009646FE
:103D70009446103928BFA0E80C50FAD85FEA417C7D
:103D800028BF0CC048BF40F8042BC90728BF20F843
:103D9000022B48BF00F8012B00BD000038B500EE33
:103DA000100A374C207800283FD1364836490A6837
:103DB0000260B8EE400ADFED3C0A80EE200ADFED3B
:103DC0003B0A30EE200A81ED000A304D91ED000AE9
:103DD000D0ED000A30EE600AB7EEC00A9FED2C2B42
:103DE00080EE020BB7EEC00B280000F0BFFE95ED91
:103DF000000ADFED290AB4EE600AF1EE10FA03DBE7
:103E000027482649016032E0BBEE090AD5ED000AD9
:103E1000F4EE400AF1EE10FA03D5214880ED000AD5
:103E200025E01F482968016021E0207801280DD194
:103E3000B8EE400ADFED1C0A80EE200ADFED1B0A17
:103E400030EE200A174880ED000A10E020780228A2
:103E50000DD1B8EE400ADFED140A80EE200ADFED46
:103E6000130A30EE200ADFF8F80C80ED000A207803
:103E7000401C20702078032801D10020207031BD23
:103E8000F321022884210228742102280400022838
:103E90007B14AE47E17A843F0100C8410000C8416D
:103EA00080210228782102280000C842000034C383
:103EB0002DE9F84F2DED028BDFF8A80C00F074FE11
:103EC000FEF778FC01F0D8F801F0A6F90A2001F01D
:103ED00020FA01F0EFFA01F093FE01F0A5FE01F0E7
:103EE0006DFF02F0E2F8DFF8884BDFF84C2CDFF8CA
:103EF0003C1C200001F0C2FE0020DFF8781B0860A7
:103F0000BFF34F8FDFF8700B016831F4803101602F
:103F1000BFF34F8FDFF8640B0168C1F34E32C1F37A
:103F2000C90343F6E07010EA421050EA8370DFF8EC
:103F3000585B28601800431E0028F2D11000421E72
:103F40000028ECD1BFF34F8FBFF36F8FDFF83C1B1E
:103F5000002002F0DEF86421002002F011FA0020B7
:103F600002F0D8F90121DFF8280B02F00BFB022147
:103F7000DFF8200B02F006FB02F0EAFB8DE00020E8
:103F8000287081E094ED000A84ED010A200002F01F
:103F900083FDDFF84C0B0078002801D00020A060E2
:103FA000DFF8F45ADFF8F40A90ED000AD8ED020ABF
:103FB00030EE600A85ED000ADFF8E40A0068686008
:103FC000280002F069FDDFF8E40A95ED020AB7EE79
:103FD000C00A9FEDC82B20EE020B90ED001AB7EE41
:103FE000C11A9FEDC63B01EE030BB7EEC00B80ED8F
:103FF000000ADFF8B01A0968416002F04DFD40F692
:10400000340002F069FEDFF8A00A01780A2933DBE8
:1040100000210170B1EE0E8BDFF8905A95ED020A87
:10402000B7EEC00A94ED021AB7EEC11A9FEDB53B88
:1040300001EE030B20EE080BB7EEC00B0121DFF8F9
:10404000700A02F003FF95ED020AB7EEC00A94ED84
:10405000021AB7EEC11A9FEDD33B01EE030B20EE1F
:10406000080BB7EEC00B0221DFF8480A02F0EEFEA3
:104070004FF4AF6002F030FEDFF83C5A2878002899
:104080007FF47DAF01202870DFF8300A008802F04D
:104090004EFE2978982002F0AAFFDFF8240A018852
:1040A000642903DB0021018001F066FDDFF8140ABA
:1040B0000188B1F5FA7F03DB0021018001F064FB88
:1040C000DFF8040A0188B1F57A7F17DB002101804F
:1040D000DFF8200A0078052810D1DFF8F059DFF862
:1040E000F0692021300001F073F82870DFF80C3AF5
:1040F000DFF8102A2978300003F01AF8DFF8D40925
:104100000188642903DB0021018001F0A1FDDFF8B3
:10411000C8090188B1F57A7F1EDB00210180DFF834
:10412000BC09DFF8CC1909680160DFF82C1A0968AE
:104130004160DFF8AC5990EC020A287803F07AF875
:10414000DFF8B0090078042806D12878002803D1C8
:10415000DFF8F40903F090F8DFF8880901780A29FC
:10416000FFF651AF00210170DFF87C59DFF87C6960
:10417000DFF87C7996ED000AD5ED000A30EE200AD2
:10418000F0EE000A80EE200A87ED000ADFF864896D
:1041900098F80000052829D1DFF85C99DFF85C0960
:1041A00090ED000AB8EEC00BB2EE0E2B80EE020BC3
:1041B000B7EEC00B484600F0D9FCDFF844A9DFF8A1
:1041C000440990ED000AB8EEC00B9FEDD02B80EEB5
:1041D000020BB7EEC00B504600F0C8FCDFF88809B0
:1041E000D9F800100160DAF80000206098F80000AB
:1041F000012822D1DFF810999FEDC31A97ED000A2C
:10420000F0EE080A20EE200AF1EE0C0AC0EE200AB9
:10421000DFF8440990ED000A484603F075F8DFF82E
:10422000ECA8D9F80400CAF80400504602F034FCA7
:10423000DAF80800DFF83019086098F80000022862
:1042400040F07481DFF8C89899F8000000280FD07A
:1042500002285BD023D3042800F0A8805CD3062872
:1042600000F01981C0F0D380072800F053815DE190
:10427000DFF8F408DFF8B41809680160DFF8C00857
:104280000188652903DA0188491C018006E00021C4
:10429000018099F80000401C89F8000046E1DFF831
:1042A000C808DFF8881809680160DFF8B0A8DFF8EF
:1042B000A8080068CAF804000020CAF800005046A8
:1042C00002F0EAFBDAF808002060DFF870A8DFF8F7
:1042D000440801F093FD8AF800009AF900000028D4
:1042E00006D001F0C7FC99F80000401C89F80000D6
:1042F0001CE100BF9A9999999999B93FCDCCCCCC42
:10430000CCCCEC3F9A9999999999F93F99F800008A
:10431000401C89F8000009E1DFF84C08DFF81818A4
:1043200009680160DFF814A8DFF8E80701F066FD0E
:104330008AF800009AF9000000EE100AB8EEC00BEF
:104340009FEDA52B20EE020BB7EEC00B84ED000A0B
:10435000DFF8EC07018840F2F512914203DA018898
:10436000491C01801CE0DFF8F01791ED000ADFED39
:10437000980AB4EE600AF1EE10FA08DA91ED000A3C
:10438000DFED940AB4EE600AF1EE10FA08D50021D0
:10439000018001F06FFC99F80000401C89F80000D2
:1043A000C4E000BF9A9999999999F9BFDFF8B807C5
:1043B00000210160DFF8A4A7DFF85C07CAF800005D
:1043C0009AED010A504601F0F7FBDFF88C07006810
:1043D000CAF80400504602F05FFBDAF808002060DB
:1043E0009AED000ADAED010A30EE600AB7EEC00A73
:1043F000B0EEC00B9FEDD22BB4EE420BF1EE10FAF3
:1044000004D599F80000401C89F800008EE0DFF820
:104410005807DFF8181709680160DFF840A7DFF8D0
:1044200038070168CAF8041090ED000AB5EE400A9A
:10443000F1EE10FA02DD9FEDBF0A01E09FEDBE0A2A
:10444000B8EEC00A8AED000A504602F025FBDAF801
:1044500008002060DFF8E4A6DFF8B80601F0CEFC23
:104460008AF80000DFF8D816088840F2F51290426A
:1044700003DA0888401C08800CE09AF90000002844
:1044800008D00020088001F0F5FB99F80000401CDE
:1044900089F800004AE0DFF8D006DFF89C160968CA
:1044A0000160DFF898A6DFF86C0601F0A7FC8AF837
:1044B00000009AF9000000EE100AB8EEC00B9FED64
:1044C000462B20EE020BB7EEC00B84ED000ADFF89E
:1044D000880690ED000ADFED990AB4EE600AF1EE6D
:1044E00010FA0FD590ED000AFAEE040AB4EE600A55
:1044F000F1EE10FA06DB01F0BDFB99F80000401C5C
:1045000089F8000012E000BF6F12833A000000003B
:1045100000004440002088F80000002089F80000D6
:1045200000202060DFF840060021016098F80000BC
:10453000032840F02982DFF8E4A59AF80000042857
:1045400080F21782DFF8D89599F80000002813D080
:10455000022800F07D8043D3042800F0F580C0F0ED
:10456000A380062800F05981C0F01F81082800F0C0
:10457000CE81C0F0818107E2DFF8EC050021016007
:10458000DFF8D8A5DFF89C05CAF80000DFF8C805F9
:104590000068CAF80400504602F07EFADAF8080013
:1045A00020609AED000ADAED010A30EE600AB7EEFB
:1045B000C00AB0EEC00B9FED622BB4EE420BF1EEE1
:1045C00010FA04D599F80000401C89F80000DBE1DE
:1045D00000001B43FFFF1AC3333333333333F33F3E
:1045E000DFF88405DFF8441509680160DFF86CA581
:1045F000DFF864050068CAF80400DFF82805CAF887
:104600000000504602F048FADAF808002060DFF8AF
:104610002CA5DFF8000501F0F1FB8AF80000DFF8B7
:104620002015088840F2F512904203DA0888401CF1
:1046300008800CE09AF90000002808D000200880CB
:1046400001F018FB99F80000401C89F800009BE17C
:10465000DFF8140500210160DFF800A5DFF8C804C9
:10466000CAF80000DFF8F0040068CAF804005046F9
:1046700002F012FADAF8080020609AED000ADAED8A
:10468000010A30EE600AB7EEC00AB0EEC00B9FED33
:104690002C2BB4EE420BF1EE10FA04D599F8000081
:1046A000401C89F800006FE1DFF8BC04DFF88814D3
:1046B00009680160DFF884A4DFF8580401F09EFB6C
:1046C0008AF800009AF9000000EE100AB8EEC00B5C
:1046D0009FEDC42B20EE020BB7EEC00B84ED000A59
:1046E000DFF85C04018840F2F512914203DA018898
:1046F000491C01801CE0DFF8601491ED000ADFED39
:10470000B80AB4EE600AF1EE10FA08DA91ED000A88
:10471000DFEDD60AB4EE600AF1EE10FA08D50021FA
:10472000018001F0A7FA99F80000401C89F8000008
:104730002AE100BFB30000004DFFFFFF0100204150
:104740000100000000000040DFF81C0400210160AF
:10475000DFF808A4DFF8D803CAF80000DFF8F80390
:104760000068CAF804009AED010A504601F024FAE4
:10477000504602F091F9DAF8080020609AED000A3C
:10478000DAED010A30EE600AB7EEC00AB0EEC00BF7
:104790009FEDBB2BB4EE420BF1EE10FA04D599F865
:1047A0000000401C89F80000EEE0DFF8BC03DFF8F1
:1047B0007C1309680160DFF8A4A3DFF89C0300689C
:1047C000CAF80400DFF86803CAF80000504602F097
:1047D00063F9DAF808002060DFF860A3DFF834033B
:1047E00001F00CFB8AF80000DFF85413088840F24F
:1047F000F512904203DA0888401C08800CE09AF910
:104800000000002808D00020088001F033FA99F851
:104810000000401C89F80000B6E0DFF84C030021DE
:104820000160DFF838A3C348CAF80000CA4800682E
:10483000CAF804009AED010A504601F0BDF950464D
:1048400002F02AF9DAF8080020609AED000ADAEDA1
:10485000010A30EE600AB7EEC00AB0EEC00B9FED61
:10486000882BB4EE420BF1EE10FA04D599F8000053
:10487000401C89F8000087E0DFF8ECA2AE48006831
:10488000CAF80000DFF8B4B2A24801F0B7FA8BF81A
:1048900000009BF9000000EE100AB8EEC00B9FED7F
:1048A000512B20EE020BB7EEC00B84ED000ADFF8AF
:1048B00090B2BBF8000040F2F511884205DABBF86F
:1048C0000000401CABF8000020E0A34890ED000A77
:1048D000DFED9C0AB4EE600AF1EE10FA16D590ED09
:1048E000000AFAEE0E0AB4EE600AF1EE10FA0DDBE1
:1048F00001F0C0F999F80000401C89F80000002080
:10490000ABF800005FF07C50CAF800003CE096482D
:104910005FF07C510160DFF844B20020CBF800006A
:104920008D480068CBF804009BED010A584601F061
:1049300043F9584602F0B0F8DBF8080020609BED20
:10494000000ADBED010A30EE600AB7EEC00AB0EEF5
:10495000C00B9FED4B2BB4EE420BF1EE10FA07D5D6
:10496000002089F800009AF80000401C8AF8000036
:104970000AE000206A490870002020607A4800217F
:104980000160002088F8000098F8000004283AD15F
:104990006D4890ED010ADFED6D0AB4EE600AF1EEAC
:1049A00010FA23D090ED000AB7EEC00A9FED682BF5
:1049B00020EE020BB7EEC00B6B4981ED000ADFF869
:1049C0009C8165490968C8F804104068C8F800006F
:1049D000404602F061F8D8F80800206013E000BFFC
:1049E00000002A43CDCCCCCCCCCCF43F002188F8BD
:1049F0000010002101600021416058480021016041
:104A0000594800210160DFF860813868C8F8040067
:104A1000404602F041F896ED000AD5ED000A30EE6E
:104A2000600A84ED010A94ED000AFFEE000A30EE00
:104A3000200AD4ED010AF4EE400AF1EE10FA03D593
:104A400094ED010AFFF7A0BA94ED000AF7EE000A10
:104A500030EE200AD4ED010AB4EE600AF1EE10FA4D
:104A60007FF590AA94ED010AFFF78EBAFFFF29C3E4
:104A70002401022884ED00E014ED00E080ED00E068
:104A8000010000000000004074EF00E09D3D0810B0
:104A9000B0200228C0200228C40002288821022851
:104AA0007421022880210228E6210228940002288D
:104AB0003400022864000228F1210228E2210228A1
:104AC000D6210228D8210228D4210228F221022846
:104AD000D81F0228DA210228DC21022848210228D6
:104AE000F9210228E7210228942102289021022896
:104AF0008C210228F821022814000228982102287B
:104B0000240002289C210228E020022854010228C7
:104B1000F52102284021022800803343F721022892
:104B2000F62102289A9916420000A0C16C210228A1
:104B30009A590C43000025C370210228F421022851
:104B4000E42102280100704150210228000048435E
:104B50009A9999999999E93F782102288401022824
:104B60007C21022880B2E60EF4000228D0ED000A73
:104B700090ED011AD0ED021A31EE211AD0ED031A90
:104B800071EE211AC1EE211A30EE600A40EE210AC0
:104B9000C0ED000AB7EE000A30EE610A20EE010A0D
:104BA00080ED010A7047000080B50549086002F0F9
:104BB000F7FB02F0EBF80020FEF7AEFE01BD0000AF
:104BC000B821022880B501000820DFF89824106081
:104BD000C9B2012002F0EAFE01BD80B50100082043
:104BE000DFF884241060C9B2012002F0DFFE01BDAD
:104BF00070B504000D002000C0B2802801DA012049
:104C000000E00020DFF864646A223100C0B2FDF7E2
:104C100082FD2800C0B2082801DA012000E000204F
:104C20006B223100C0B2FDF776FDB5F15000C0B285
:104C3000FFF7D3FF2000C0B2000950F01000C0B24F
:104C4000FFF7CBFF14F00F042000FFF7C6FF70BD85
:104C500000B585B06846FDF77CFD0120ADF8000089
:104C60008020ADF802004020ADF80400DFF8000419
:104C70000078002803D002280FD007D30DE00620CB
:104C80008DF8060001208DF8070006E008208DF859
:104C9000060002208DF80700FFE70FF26D00039079
:104CA0000FF20D0004906846FDF763FD05B000BDEE
:104CB00038B5002000200820DFF8B8130860002471
:104CC00008E00020FFF77EFF6D1C2800C0B280289E
:104CD000F7DB641C2000C0B208280CDAB4F15000E5
:104CE000C0B2FFF77AFF0120FFF777FF1020FFF730
:104CF00074FF0025E9E70820DFF8B014086031BD33
:104D0000DFF8AC14087070472DE9F8430600150071
:104D1000300080B2802801DA012000E000200C0081
:104D2000DFF8487340F20B123900C0B2FDF7F3FC14
:104D3000200080B2082801DA012000E000204FF4B2
:104D400086723900C0B2FDF7E6FC0820DFF82413B4
:104D5000086000200020002714E0DFF858144A46BD
:104D6000D2B20620424301EB02004146C9B2405C88
:104D7000FFF728FF18F101084046C0B20628ECDB17
:104D8000B61D7F1C3800C0B2285C002860D0DFF858
:104D9000E0020078002803D0022858D014D3F1E7AD
:104DA0003800C0B2285CB0F12009300080B27F2802
:104DB00001DB0026641C2100C9B23000C0B2FFF73D
:104DC00017FF5FF00008D7E73800C0B2285CB0F1E9
:104DD0002008300080B2792801DB0026641C210005
:104DE000C9B23000C0B2FFF703FF5FF000090CE06A
:104DF000DFF8C4034146C9B2090108444946C9B2B3
:104E0000405CFFF7DFFE19F101094846C0B20828EF
:104E1000EEDB611CC9B23000C0B2FFF7E9FE5FF003
:104E200000090DE0DFF890034146C9B209010844CA
:104E30004946C9B20844007AFFF7C4FE19F10109D6
:104E40004846C0B20828EDDB08367F1C9AE799E790
:104E50000820DFF858130860BDE8F1832DE9FE4310
:104E6000070016001D00380080B2802801DA0120FA
:104E700000E000200C00DFF844834FF4A9724146A3
:104E8000C0B2FDF748FC200080B2082801DA0120FA
:104E900000E0002040F253124146C0B2FDF73BFC57
:104EA0002800C0B2002801D0012000E0002040F21C
:104EB00055124146C0B2FDF72EFC2800C0B20B28A7
:104EC00001DA012000E000204FF4AB724146C0B28D
:104ED000FDF721FC5FF001080C210022E94648465D
:104EE000FDF79AFC2900C9B2491C2022E946484630
:104EF000FDF792FC2800C0B20A280CDA03E00A2071
:104F000000FB08F86D1E2800C0B20028F7D196FB00
:104F1000F8F008FB10663100684602F0FBFE6A46B6
:104F2000210089B2380080B2FFF7EEFEBDE8F783BA
:104F30002DE9F0412DED028B86B00500B0EE408BDF
:104F400016001F00280080B2802801DA012000E04E
:104F500000200C00DFF8648240F2A7124146C0B284
:104F6000FDF7D9FB200080B2082801DA012000E01B
:104F700000204FF4D4724146C0B2FDF7CCFB3000A4
:104F8000C0B2002801D0012000E000204FF4D5720B
:104F90004146C0B2FDF7BFFB3000C0B2092801DABC
:104FA000012000E0002040F2AB124146C0B2FDF704
:104FB000B2FB3800C0B2002801D0012000E0002080
:104FC0004FF4D6724146C0B2FDF7A5FB3800C0B21F
:104FD000072801DA012000E0002040F2AD1241462E
:104FE000C0B2FDF798FBB7EE000B11210022E84696
:104FF0004046FDF711FC3800C0B250FA86F1891C1A
:105000002022E8464046FDF707FC04E0B2EE042B00
:1050100020EE020B761E3000C0B20028F6D1BDEEA5
:10502000C81B11EE100ABDEEC01B11EE101A90FB4A
:10503000F1F001EE100AB8EEC11B01EE408B390011
:10504000C9B2B0EE480B684602F0A8FE6A462100DD
:1050500089B2280080B2FFF757FE06B0BDEC028B84
:10506000BDE8F081080B3140040B31408CB90810C9
:1050700006220228040631401FB5082002900420B1
:1050800001900120009001234D4A0021012002F0EF
:10509000EFFC032301220121B42002F002F80323D4
:1050A00001220121B32001F0FCFF03230122012191
:1050B000632001F0F6FF3E4C2078FFF721FE082028
:1050C00040490860102040490860322001F02FFE5E
:1050D00010203E490860AE20FFF77FFD0020FFF75B
:1050E0007CFD1020FFF779FD4020FFF776FD812041
:1050F000FFF773FD7F20FFF770FD2078002806D1B1
:10510000A120FFF76AFDC820FFF767FD05E0A0209A
:10511000FFF763FDC020FFF760FDA620FFF75DFDF0
:10512000A820FFF75AFD3F20FFF757FDD320FFF7D8
:1051300054FD0020FFF751FDD520FFF74EFD8020E4
:10514000FFF74BFDD920FFF748FDF120FFF745FDA4
:10515000DA20FFF742FD1220FFF73FFDDB20FFF7CB
:105160003CFD4020FFF739FD2020FFF736FD0220EF
:10517000FFF733FD8D20FFF730FD1420FFF72DFDE5
:10518000A420FFF72AFDA620FFF727FDAF20FFF799
:1051900024FD082005490860FFF78AFD0021002052
:1051A000FFF726FDFFF754FD1FBD00000806314044
:1051B00005220228A8AF081030A508108CB90810E5
:1051C00080C3C90104063140040B3140080B314053
:1051D00038B504000D00002C01D0012000E00020B3
:1051E000B6221E49C0B2FDF796FA009500236A4622
:1051F00021001B48FEF773FA009832BD10B5194C18
:1052000021000120FDF705FF002804D00122210024
:105210001348FEF794F910BD10B50024124901207F
:1052200002F089FE4023114A00210D48FEF727FBBA
:10523000012301220021B62001F033FF01230122C6
:105240005FF4E1310120FEF70AF801210120FDF7AA
:1052500087FF2000C0B210BD0000000024B8081075
:10526000582002280A220228FD510810781F02281F
:1052700010B5002000241FE000212200D2B281548A
:1052800013E037482100C9B2415C0229F4D0354906
:105290002200D2B251F822100A3940F2DE32914295
:1052A000EAD201212200D2B2815400202D492200ED
:1052B000D2B241F82200641C2000C0B2042823DAD4
:1052C00029482100C9B2405C01F0B3FE0128D8D0C2
:1052D00024482100C9B250F82110491C2200D2B242
:1052E00040F822104FF47A71204A1268B1FBF2F1B3
:1052F0002200D2B250F822008842DCD302201849A2
:105300002200D2B28854D6E710BD1549C0B2085C5D
:10531000704770B50400002C01D0012000E000208F
:105320008C221349C0B2FDF7F6F9002000250EE0EB
:105330000123012200210C482E00F6B2805D01F00D
:10534000B0FE002006492A00D2B288546D1C280005
:10535000C0B20428ECDB0548046070BD000000000A
:10536000C4210228D02002287CBD0810C0210228B8
:1053700054B90810DFF8D4170878002802D10120AA
:10538000087001E0002008707047DFF8C017087847
:10539000002802D10220087001E000200870704748
:1053A000DFF8A8170878002802D10320087001E070
:1053B000002008707047DFF894170878002802D1A1
:1053C0000420087001E0002008707047DFF87C17A7
:1053D0000878002802D10520087001E0002008703C
:1053E0007047000080B588B05B21002000F030FDE0
:1053F000002803D05B21002000F04BFD9FED2C0A1C
:10540000DFF81007D0EDA70A60EE800AFCEEE00A94
:10541000CDED000AD0EDB00A20EE800ABCEEC00A45
:105420008DED040A08236A465B21002000F091FDFF
:1054300009B000BD80B58CB05A21002000F008FDF5
:10544000002803D05A21002000F023FD9FED180A08
:10545000DFF8C006D0EDF50A60EE800AFCEEE00A47
:10546000CDED000AD0EDFE0A60EE800AFCEEE00A07
:10547000CDED040AD0F81C0400EE900A20EE800A5C
:10548000BCEEC00A8DED080A0C236A465A210020A2
:1054900000F05FFD0DB000BDDFF8B41608780028FD
:1054A00002D10120087001E0002008707047000060
:1054B0000000C8422DE9F041FFF7DEFDDFF8544659
:1054C000DFF85416200002F057FD0620A4F834013E
:1054D0005FF0FF35A4F83651A6A6310014F1140090
:1054E00002F04AFD002084F828000020E06201203C
:1054F000208600206063A0A114F1380002F03CFD7A
:10550000022084F84C0000202065A4F85450DFF8F5
:105510000C06A06599A114F15C0002F02DFD02209B
:1055200084F8700000206067A4F87850DFF8F00578
:10553000E06793A114F1800002F01EFD022084F8C0
:1055400094000020C4F89800A4F89C50DFF8D4051B
:10555000C4F8A0008BA7390014F1A40002F00CFDE0
:10556000002084F8B8000020C4F8BC000520A4F88E
:10557000C0000020C4F8C400BDA114F1C80002F0AE
:10558000FBFC022084F8DC000020C4F8E000A4F852
:10559000E450DFF89405C4F8E800310014F59C707D
:1055A00002F0EAFC0220A4F86C020020A4F86E02CB
:1055B000DFF87865310014F5A67002F0DDFC0020FC
:1055C00084F860010020C4F864010220A4F8680196
:1055D0000020C4F86C010FF29C28414614F5B87005
:1055E00002F0CAFC002084F884010020C4F888017D
:1055F0000320A4F88C010020C4F89001310014F5B8
:105600001C7002F0B9FC0320A4F8A4030120A4F844
:10561000A603DFF81C1514F5217002F0ADFC032081
:1056200084F898020020C4F89C02A4F8A05200203C
:10563000C4F8A402DFF8FC1414F52A7002F09CFCF4
:10564000032084F8BC020020C4F8C002A4F8C452AD
:105650000020C4F8C802ABA6310014F5337002F084
:105660008BFC022084F8E0020020C4F8E402A4F8D5
:10567000E852DFF8C404C4F8EC02414614F56A703D
:1056800002F07AFC0420A4F8DC040120A4F8DE0473
:105690009DA114F56F7002F06FFC032084F8D00315
:1056A0000020C4F8D403A4F8D8530020C4F8DC03C5
:1056B00096A114F5787002F05FFC032084F8F403DF
:1056C0000020C4F8F803A4F8FC530020C4F8000438
:1056D000390004F2044002F04FFC032084F818045F
:1056E0000020C4F81C04A4F820540020C4F82404AA
:1056F000310014F5856002F03FFC022084F83C0480
:105700000020C4F84004A4F84454DFF83004C4F87E
:105710004804390014F5C36002F02EFC0220A4F8FE
:105720004C070020A4F84E07DFF8141404F22C6094
:1057300002F022FC022084F840060020C4F844064F
:10574000A4F84856DFF8FC03C4F84C06DFF8F81359
:1057500014F5CA6002F010FC022084F864060020F0
:10576000C4F86806A4F86C56DFF8F803C4F87006AD
:10577000BDE8F081504944004100000042000000B3
:1057800043000000440000002DE9F0410123DFF850
:10579000BC03027800216C20FFF760FBDFF8B00348
:1057A0000078002805D0DFF8AC2301215A20FFF74C
:1057B000ABFA4FF49C74DFF8A053D64E95F9000075
:1057C00010FB04F006EB000200210020FFF79CFA1A
:1057D00000273FE03800DFF8841391F9001000B291
:1057E00009B2884205D18CA2791C89B20020FFF74A
:1057F0008BFA5FF0240895F9000010FB04F03044A8
:1058000017FB08F1084410F11402791C89B2062034
:10581000FFF77AFA95F9000010FB04F0304417FB0B
:1058200008F1084490F82800032812D1022301222D
:1058300095F9000010FB04F0304417FB08F1084410
:1058400090ED0B0AB7EEC00A791C89B24220FFF72F
:105850006FFB7F1C380095F9001011FB04F13144F7
:10586000B1F9341100B28842B4DBBDE8F081000028
:10587000450000004449520070B5FFF719FAB848D6
:1058800090F90000002815D1B4480178491E017034
:1058900090F90010002933D59E49AF4A92F90020B3
:1058A0004FF49C7312FB03F21144B1F83411491EFA
:1058B000017025E024204FF49C72A74B954CA7491A
:1058C00093F9005015FB02F5254491F9006016FB91
:1058D00000F6354493F9003013FB02F2224491F9AB
:1058E000001011FB00F0104490ED0B0AB7EEC00A57
:1058F0009FED9D2B30EE020BB7EEC00B85ED0B0A32
:1059000070BD00004F4B0000500000004900000037
:1059100070B5FFF7CDF9924890F90000002816D134
:105920008E480178491C017090F90010794A8A4B21
:1059300093F900304FF49C7413FB04F31A44B2F94A
:10594000342109B2914228D10021017025E02420A0
:105950004FF49C72804B6F4C804993F9005015FBBB
:1059600002F5254491F9006016FB00F6354493F9E1
:10597000003013FB02F2224491F9001011FB00F0F9
:10598000104490ED0B0AB7EEC00A9FED792B30EE74
:10599000020BB7EEC00B85ED0B0A70BD10B5FFF71B
:1059A00087F96F4890F90010012916D159496A4AC0
:1059B00092F900204FF49C7312FB03F21144674AE2
:1059C00092F90020242312FB03F2114491F82810CD
:1059D000032902D1002101701CE04FF49C725E4942
:1059E0004C4B91F9004014FB02F41C44B4F93641CD
:1059F00014F1010F0ED090F9000000280AD1002008
:105A0000564C207091F9000010FB02F01844B0F8D9
:105A10003601087010BD00003E000000F8B5FFF729
:105A200047F924214D4A4FF49C734B4D394C95F95D
:105A3000000010FB03F0204492F9006016FB01F611
:105A4000304490F8280002280CD195F9000010FB92
:105A500003F0204492F9002012FB01F10844406B4E
:105A6000804755E095F9000010FB03F0204492F9BF
:105A7000006016FB01F63044B0F9300010F1010F60
:105A80001CD095F9000010FB03F0204492F900604F
:105A900016FB01F6304490F8280003280ED095F943
:105AA000000010FB03F0204492F9003013FB01F1D9
:105AB0000844008E28700020107029E0284E96F9C6
:105AC0000000002810D195F9000010FB03F02044DD
:105AD00092F9007017FB01F7384490F8280003286A
